{
  "contractName": "MyNFTERC721",
  "abi": [
    {
      "inputs": [
        {
          "internalType": "string",
          "name": "name",
          "type": "string"
        },
        {
          "internalType": "string",
          "name": "symbol",
          "type": "string"
        },
        {
          "internalType": "string",
          "name": "baseTokenURI",
          "type": "string"
        }
      ],
      "stateMutability": "nonpayable",
      "type": "constructor"
    },
    {
      "anonymous": false,
      "inputs": [
        {
          "indexed": true,
          "internalType": "address",
          "name": "owner",
          "type": "address"
        },
        {
          "indexed": true,
          "internalType": "address",
          "name": "approved",
          "type": "address"
        },
        {
          "indexed": true,
          "internalType": "uint256",
          "name": "tokenId",
          "type": "uint256"
        }
      ],
      "name": "Approval",
      "type": "event"
    },
    {
      "anonymous": false,
      "inputs": [
        {
          "indexed": true,
          "internalType": "address",
          "name": "owner",
          "type": "address"
        },
        {
          "indexed": true,
          "internalType": "address",
          "name": "operator",
          "type": "address"
        },
        {
          "indexed": false,
          "internalType": "bool",
          "name": "approved",
          "type": "bool"
        }
      ],
      "name": "ApprovalForAll",
      "type": "event"
    },
    {
      "anonymous": false,
      "inputs": [
        {
          "indexed": true,
          "internalType": "address",
          "name": "from",
          "type": "address"
        },
        {
          "indexed": true,
          "internalType": "address",
          "name": "to",
          "type": "address"
        },
        {
          "indexed": true,
          "internalType": "uint256",
          "name": "tokenId",
          "type": "uint256"
        }
      ],
      "name": "Transfer",
      "type": "event"
    },
    {
      "inputs": [
        {
          "internalType": "address",
          "name": "to",
          "type": "address"
        },
        {
          "internalType": "uint256",
          "name": "tokenId",
          "type": "uint256"
        }
      ],
      "name": "approve",
      "outputs": [],
      "stateMutability": "nonpayable",
      "type": "function"
    },
    {
      "inputs": [
        {
          "internalType": "address",
          "name": "owner",
          "type": "address"
        }
      ],
      "name": "balanceOf",
      "outputs": [
        {
          "internalType": "uint256",
          "name": "",
          "type": "uint256"
        }
      ],
      "stateMutability": "view",
      "type": "function",
      "constant": true
    },
    {
      "inputs": [
        {
          "internalType": "uint256",
          "name": "tokenId",
          "type": "uint256"
        }
      ],
      "name": "burn",
      "outputs": [],
      "stateMutability": "nonpayable",
      "type": "function"
    },
    {
      "inputs": [
        {
          "internalType": "uint256",
          "name": "tokenId",
          "type": "uint256"
        }
      ],
      "name": "getApproved",
      "outputs": [
        {
          "internalType": "address",
          "name": "",
          "type": "address"
        }
      ],
      "stateMutability": "view",
      "type": "function",
      "constant": true
    },
    {
      "inputs": [
        {
          "internalType": "address",
          "name": "owner",
          "type": "address"
        },
        {
          "internalType": "address",
          "name": "operator",
          "type": "address"
        }
      ],
      "name": "isApprovedForAll",
      "outputs": [
        {
          "internalType": "bool",
          "name": "",
          "type": "bool"
        }
      ],
      "stateMutability": "view",
      "type": "function",
      "constant": true
    },
    {
      "inputs": [],
      "name": "name",
      "outputs": [
        {
          "internalType": "string",
          "name": "",
          "type": "string"
        }
      ],
      "stateMutability": "view",
      "type": "function",
      "constant": true
    },
    {
      "inputs": [
        {
          "internalType": "uint256",
          "name": "tokenId",
          "type": "uint256"
        }
      ],
      "name": "ownerOf",
      "outputs": [
        {
          "internalType": "address",
          "name": "",
          "type": "address"
        }
      ],
      "stateMutability": "view",
      "type": "function",
      "constant": true
    },
    {
      "inputs": [
        {
          "internalType": "address",
          "name": "from",
          "type": "address"
        },
        {
          "internalType": "address",
          "name": "to",
          "type": "address"
        },
        {
          "internalType": "uint256",
          "name": "tokenId",
          "type": "uint256"
        }
      ],
      "name": "safeTransferFrom",
      "outputs": [],
      "stateMutability": "nonpayable",
      "type": "function"
    },
    {
      "inputs": [
        {
          "internalType": "address",
          "name": "from",
          "type": "address"
        },
        {
          "internalType": "address",
          "name": "to",
          "type": "address"
        },
        {
          "internalType": "uint256",
          "name": "tokenId",
          "type": "uint256"
        },
        {
          "internalType": "bytes",
          "name": "data",
          "type": "bytes"
        }
      ],
      "name": "safeTransferFrom",
      "outputs": [],
      "stateMutability": "nonpayable",
      "type": "function"
    },
    {
      "inputs": [
        {
          "internalType": "address",
          "name": "operator",
          "type": "address"
        },
        {
          "internalType": "bool",
          "name": "approved",
          "type": "bool"
        }
      ],
      "name": "setApprovalForAll",
      "outputs": [],
      "stateMutability": "nonpayable",
      "type": "function"
    },
    {
      "inputs": [],
      "name": "symbol",
      "outputs": [
        {
          "internalType": "string",
          "name": "",
          "type": "string"
        }
      ],
      "stateMutability": "view",
      "type": "function",
      "constant": true
    },
    {
      "inputs": [
        {
          "internalType": "uint256",
          "name": "index",
          "type": "uint256"
        }
      ],
      "name": "tokenByIndex",
      "outputs": [
        {
          "internalType": "uint256",
          "name": "",
          "type": "uint256"
        }
      ],
      "stateMutability": "view",
      "type": "function",
      "constant": true
    },
    {
      "inputs": [
        {
          "internalType": "address",
          "name": "owner",
          "type": "address"
        },
        {
          "internalType": "uint256",
          "name": "index",
          "type": "uint256"
        }
      ],
      "name": "tokenOfOwnerByIndex",
      "outputs": [
        {
          "internalType": "uint256",
          "name": "",
          "type": "uint256"
        }
      ],
      "stateMutability": "view",
      "type": "function",
      "constant": true
    },
    {
      "inputs": [
        {
          "internalType": "uint256",
          "name": "tokenId",
          "type": "uint256"
        }
      ],
      "name": "tokenURI",
      "outputs": [
        {
          "internalType": "string",
          "name": "",
          "type": "string"
        }
      ],
      "stateMutability": "view",
      "type": "function",
      "constant": true
    },
    {
      "inputs": [],
      "name": "totalSupply",
      "outputs": [
        {
          "internalType": "uint256",
          "name": "",
          "type": "uint256"
        }
      ],
      "stateMutability": "view",
      "type": "function",
      "constant": true
    },
    {
      "inputs": [
        {
          "internalType": "address",
          "name": "from",
          "type": "address"
        },
        {
          "internalType": "address",
          "name": "to",
          "type": "address"
        },
        {
          "internalType": "uint256",
          "name": "tokenId",
          "type": "uint256"
        }
      ],
      "name": "transferFrom",
      "outputs": [],
      "stateMutability": "nonpayable",
      "type": "function"
    },
    {
      "inputs": [],
      "name": "buyNFT",
      "outputs": [],
      "stateMutability": "payable",
      "type": "function",
      "payable": true
    },
    {
      "inputs": [
        {
          "internalType": "bytes4",
          "name": "interfaceId",
          "type": "bytes4"
        }
      ],
      "name": "supportsInterface",
      "outputs": [
        {
          "internalType": "bool",
          "name": "",
          "type": "bool"
        }
      ],
      "stateMutability": "view",
      "type": "function",
      "constant": true
    }
  ],
  "bytecode": "0x6080604052600a600c553480156200001657600080fd5b50604051620039943803806200399483398181016040528101906200003c919062000212565b828281600090816200004f919062000516565b50806001908162000061919062000516565b50505080600b908162000075919062000516565b50505050620005fd565b6000604051905090565b600080fd5b600080fd5b600080fd5b600080fd5b6000601f19601f8301169050919050565b7f4e487b7100000000000000000000000000000000000000000000000000000000600052604160045260246000fd5b620000e8826200009d565b810181811067ffffffffffffffff821117156200010a5762000109620000ae565b5b80604052505050565b60006200011f6200007f565b90506200012d8282620000dd565b919050565b600067ffffffffffffffff82111562000150576200014f620000ae565b5b6200015b826200009d565b9050602081019050919050565b60005b83811015620001885780820151818401526020810190506200016b565b60008484015250505050565b6000620001ab620001a58462000132565b62000113565b905082815260208101848484011115620001ca57620001c962000098565b5b620001d784828562000168565b509392505050565b600082601f830112620001f757620001f662000093565b5b81516200020984826020860162000194565b91505092915050565b6000806000606084860312156200022e576200022d62000089565b5b600084015167ffffffffffffffff8111156200024f576200024e6200008e565b5b6200025d86828701620001df565b935050602084015167ffffffffffffffff8111156200028157620002806200008e565b5b6200028f86828701620001df565b925050604084015167ffffffffffffffff811115620002b357620002b26200008e565b5b620002c186828701620001df565b9150509250925092565b600081519050919050565b7f4e487b7100000000000000000000000000000000000000000000000000000000600052602260045260246000fd5b600060028204905060018216806200031e57607f821691505b602082108103620003345762000333620002d6565b5b50919050565b60008190508160005260206000209050919050565b60006020601f8301049050919050565b600082821b905092915050565b6000600883026200039e7fffffffffffffffffffffffffffffffffffffffffffffffffffffffffffffffff826200035f565b620003aa86836200035f565b95508019841693508086168417925050509392505050565b6000819050919050565b6000819050919050565b6000620003f7620003f1620003eb84620003c2565b620003cc565b620003c2565b9050919050565b6000819050919050565b6200041383620003d6565b6200042b6200042282620003fe565b8484546200036c565b825550505050565b600090565b6200044262000433565b6200044f81848462000408565b505050565b5b8181101562000477576200046b60008262000438565b60018101905062000455565b5050565b601f821115620004c65762000490816200033a565b6200049b846200034f565b81016020851015620004ab578190505b620004c3620004ba856200034f565b83018262000454565b50505b505050565b600082821c905092915050565b6000620004eb60001984600802620004cb565b1980831691505092915050565b6000620005068383620004d8565b9150826002028217905092915050565b6200052182620002cb565b67ffffffffffffffff8111156200053d576200053c620000ae565b5b62000549825462000305565b620005568282856200047b565b600060209050601f8311600181146200058e576000841562000579578287015190505b620005858582620004f8565b865550620005f5565b601f1984166200059e866200033a565b60005b82811015620005c857848901518255600182019150602085019450602081019050620005a1565b86831015620005e85784890151620005e4601f891682620004d8565b8355505b6001600288020188555050505b505050505050565b613387806200060d6000396000f3fe6080604052600436106101095760003560e01c80634f6ccce711610095578063a22cb46511610064578063a22cb465146103a1578063b88d4fde146103ca578063bff29cee146103f3578063c87b56dd146103fd578063e985e9c51461043a57610109565b80634f6ccce7146102bf5780636352211e146102fc57806370a082311461033957806395d89b411461037657610109565b806318160ddd116100dc57806318160ddd146101dc57806323b872dd146102075780632f745c591461023057806342842e0e1461026d57806342966c681461029657610109565b806301ffc9a71461010e57806306fdde031461014b578063081812fc14610176578063095ea7b3146101b3575b600080fd5b34801561011a57600080fd5b506101356004803603810190610130919061236c565b610477565b60405161014291906123b4565b60405180910390f35b34801561015757600080fd5b50610160610489565b60405161016d919061245f565b60405180910390f35b34801561018257600080fd5b5061019d600480360381019061019891906124b7565b61051b565b6040516101aa9190612525565b60405180910390f35b3480156101bf57600080fd5b506101da60048036038101906101d5919061256c565b610561565b005b3480156101e857600080fd5b506101f1610678565b6040516101fe91906125bb565b60405180910390f35b34801561021357600080fd5b5061022e600480360381019061022991906125d6565b610685565b005b34801561023c57600080fd5b506102576004803603810190610252919061256c565b6106e5565b60405161026491906125bb565b60405180910390f35b34801561027957600080fd5b50610294600480360381019061028f91906125d6565b61078a565b005b3480156102a257600080fd5b506102bd60048036038101906102b891906124b7565b6107aa565b005b3480156102cb57600080fd5b506102e660048036038101906102e191906124b7565b610806565b6040516102f391906125bb565b60405180910390f35b34801561030857600080fd5b50610323600480360381019061031e91906124b7565b610877565b6040516103309190612525565b60405180910390f35b34801561034557600080fd5b50610360600480360381019061035b9190612629565b6108fd565b60405161036d91906125bb565b60405180910390f35b34801561038257600080fd5b5061038b6109b4565b604051610398919061245f565b60405180910390f35b3480156103ad57600080fd5b506103c860048036038101906103c39190612682565b610a46565b005b3480156103d657600080fd5b506103f160048036038101906103ec91906127f7565b610a5c565b005b6103fb610abe565b005b34801561040957600080fd5b50610424600480360381019061041f91906124b7565b610b31565b604051610431919061245f565b60405180910390f35b34801561044657600080fd5b50610461600480360381019061045c919061287a565b610b99565b60405161046e91906123b4565b60405180910390f35b600061048282610c2d565b9050919050565b606060008054610498906128e9565b80601f01602080910402602001604051908101604052809291908181526020018280546104c4906128e9565b80156105115780601f106104e657610100808354040283529160200191610511565b820191906000526020600020905b8154815290600101906020018083116104f457829003601f168201915b5050505050905090565b600061052682610ca7565b6004600083815260200190815260200160002060009054906101000a900473ffffffffffffffffffffffffffffffffffffffff169050919050565b600061056c82610877565b90508073ffffffffffffffffffffffffffffffffffffffff168373ffffffffffffffffffffffffffffffffffffffff16036105dc576040517f08c379a00000000000000000000000000000000000000000000000000000000081526004016105d39061298c565b60405180910390fd5b8073ffffffffffffffffffffffffffffffffffffffff166105fb610cf2565b73ffffffffffffffffffffffffffffffffffffffff16148061062a575061062981610624610cf2565b610b99565b5b610669576040517f08c379a000000000000000000000000000000000000000000000000000000000815260040161066090612a1e565b60405180910390fd5b6106738383610cfa565b505050565b6000600880549050905090565b610696610690610cf2565b82610db3565b6106d5576040517f08c379a00000000000000000000000000000000000000000000000000000000081526004016106cc90612ab0565b60405180910390fd5b6106e0838383610e48565b505050565b60006106f0836108fd565b8210610731576040517f08c379a000000000000000000000000000000000000000000000000000000000815260040161072890612b42565b60405180910390fd5b600660008473ffffffffffffffffffffffffffffffffffffffff1673ffffffffffffffffffffffffffffffffffffffff168152602001908152602001600020600083815260200190815260200160002054905092915050565b6107a583838360405180602001604052806000815250610a5c565b505050565b6107bb6107b5610cf2565b82610db3565b6107fa576040517f08c379a00000000000000000000000000000000000000000000000000000000081526004016107f190612ab0565b60405180910390fd5b61080381611141565b50565b6000610810610678565b8210610851576040517f08c379a000000000000000000000000000000000000000000000000000000000815260040161084890612bd4565b60405180910390fd5b6008828154811061086557610864612bf4565b5b90600052602060002001549050919050565b6000806108838361128f565b9050600073ffffffffffffffffffffffffffffffffffffffff168173ffffffffffffffffffffffffffffffffffffffff16036108f4576040517f08c379a00000000000000000000000000000000000000000000000000000000081526004016108eb90612c6f565b60405180910390fd5b80915050919050565b60008073ffffffffffffffffffffffffffffffffffffffff168273ffffffffffffffffffffffffffffffffffffffff160361096d576040517f08c379a000000000000000000000000000000000000000000000000000000000815260040161096490612d01565b60405180910390fd5b600360008373ffffffffffffffffffffffffffffffffffffffff1673ffffffffffffffffffffffffffffffffffffffff168152602001908152602001600020549050919050565b6060600180546109c3906128e9565b80601f01602080910402602001604051908101604052809291908181526020018280546109ef906128e9565b8015610a3c5780601f10610a1157610100808354040283529160200191610a3c565b820191906000526020600020905b815481529060010190602001808311610a1f57829003601f168201915b5050505050905090565b610a58610a51610cf2565b83836112cc565b5050565b610a6d610a67610cf2565b83610db3565b610aac576040517f08c379a0000000000000000000000000000000000000000000000000000000008152600401610aa390612ab0565b60405180910390fd5b610ab884848484611438565b50505050565b6000610aca600a611494565b9050600c548110610ada57600080fd5b670de0b6b3a7640000341015610b25576040517f08c379a0000000000000000000000000000000000000000000000000000000008152600401610b1c90612d6d565b60405180910390fd5b610b2e336114a2565b50565b6060610b3c82610ca7565b6000610b466114c8565b90506000815111610b665760405180602001604052806000815250610b91565b80610b708461155a565b604051602001610b81929190612dc9565b6040516020818303038152906040525b915050919050565b6000600560008473ffffffffffffffffffffffffffffffffffffffff1673ffffffffffffffffffffffffffffffffffffffff16815260200190815260200160002060008373ffffffffffffffffffffffffffffffffffffffff1673ffffffffffffffffffffffffffffffffffffffff16815260200190815260200160002060009054906101000a900460ff16905092915050565b60007f780e9d63000000000000000000000000000000000000000000000000000000007bffffffffffffffffffffffffffffffffffffffffffffffffffffffff1916827bffffffffffffffffffffffffffffffffffffffffffffffffffffffff19161480610ca05750610c9f82611628565b5b9050919050565b610cb08161170a565b610cef576040517f08c379a0000000000000000000000000000000000000000000000000000000008152600401610ce690612c6f565b60405180910390fd5b50565b600033905090565b816004600083815260200190815260200160002060006101000a81548173ffffffffffffffffffffffffffffffffffffffff021916908373ffffffffffffffffffffffffffffffffffffffff160217905550808273ffffffffffffffffffffffffffffffffffffffff16610d6d83610877565b73ffffffffffffffffffffffffffffffffffffffff167f8c5be1e5ebec7d5bd14f71427d1e84f3dd0314c0f7b2291e5b200ac8c7c3b92560405160405180910390a45050565b600080610dbf83610877565b90508073ffffffffffffffffffffffffffffffffffffffff168473ffffffffffffffffffffffffffffffffffffffff161480610e015750610e008185610b99565b5b80610e3f57508373ffffffffffffffffffffffffffffffffffffffff16610e278461051b565b73ffffffffffffffffffffffffffffffffffffffff16145b91505092915050565b8273ffffffffffffffffffffffffffffffffffffffff16610e6882610877565b73ffffffffffffffffffffffffffffffffffffffff1614610ebe576040517f08c379a0000000000000000000000000000000000000000000000000000000008152600401610eb590612e5f565b60405180910390fd5b600073ffffffffffffffffffffffffffffffffffffffff168273ffffffffffffffffffffffffffffffffffffffff1603610f2d576040517f08c379a0000000000000000000000000000000000000000000000000000000008152600401610f2490612ef1565b60405180910390fd5b610f3a838383600161174b565b8273ffffffffffffffffffffffffffffffffffffffff16610f5a82610877565b73ffffffffffffffffffffffffffffffffffffffff1614610fb0576040517f08c379a0000000000000000000000000000000000000000000000000000000008152600401610fa790612e5f565b60405180910390fd5b6004600082815260200190815260200160002060006101000a81549073ffffffffffffffffffffffffffffffffffffffff02191690556001600360008573ffffffffffffffffffffffffffffffffffffffff1673ffffffffffffffffffffffffffffffffffffffff168152602001908152602001600020600082825403925050819055506001600360008473ffffffffffffffffffffffffffffffffffffffff1673ffffffffffffffffffffffffffffffffffffffff16815260200190815260200160002060008282540192505081905550816002600083815260200190815260200160002060006101000a81548173ffffffffffffffffffffffffffffffffffffffff021916908373ffffffffffffffffffffffffffffffffffffffff160217905550808273ffffffffffffffffffffffffffffffffffffffff168473ffffffffffffffffffffffffffffffffffffffff167fddf252ad1be2c89b69c2b068fc378daa952ba7f163c4a11628f55a4df523b3ef60405160405180910390a461113c838383600161175d565b505050565b600061114c82610877565b905061115c81600084600161174b565b61116582610877565b90506004600083815260200190815260200160002060006101000a81549073ffffffffffffffffffffffffffffffffffffffff02191690556001600360008373ffffffffffffffffffffffffffffffffffffffff1673ffffffffffffffffffffffffffffffffffffffff168152602001908152602001600020600082825403925050819055506002600083815260200190815260200160002060006101000a81549073ffffffffffffffffffffffffffffffffffffffff021916905581600073ffffffffffffffffffffffffffffffffffffffff168273ffffffffffffffffffffffffffffffffffffffff167fddf252ad1be2c89b69c2b068fc378daa952ba7f163c4a11628f55a4df523b3ef60405160405180910390a461128b81600084600161175d565b5050565b60006002600083815260200190815260200160002060009054906101000a900473ffffffffffffffffffffffffffffffffffffffff169050919050565b8173ffffffffffffffffffffffffffffffffffffffff168373ffffffffffffffffffffffffffffffffffffffff160361133a576040517f08c379a000000000000000000000000000000000000000000000000000000000815260040161133190612f5d565b60405180910390fd5b80600560008573ffffffffffffffffffffffffffffffffffffffff1673ffffffffffffffffffffffffffffffffffffffff16815260200190815260200160002060008473ffffffffffffffffffffffffffffffffffffffff1673ffffffffffffffffffffffffffffffffffffffff16815260200190815260200160002060006101000a81548160ff0219169083151502179055508173ffffffffffffffffffffffffffffffffffffffff168373ffffffffffffffffffffffffffffffffffffffff167f17307eab39ab6107e8899845ad3d59bd9653f200f220920489ca2b5937696c318360405161142b91906123b4565b60405180910390a3505050565b611443848484610e48565b61144f84848484611763565b61148e576040517f08c379a000000000000000000000000000000000000000000000000000000000815260040161148590612fef565b60405180910390fd5b50505050565b600081600001549050919050565b60006114ae600a611494565b90506114ba600a6118ea565b6114c48282611900565b5050565b6060600b80546114d7906128e9565b80601f0160208091040260200160405190810160405280929190818152602001828054611503906128e9565b80156115505780601f1061152557610100808354040283529160200191611550565b820191906000526020600020905b81548152906001019060200180831161153357829003601f168201915b5050505050905090565b6060600060016115698461191e565b01905060008167ffffffffffffffff811115611588576115876126cc565b5b6040519080825280601f01601f1916602001820160405280156115ba5781602001600182028036833780820191505090505b509050600082602001820190505b60011561161d578080600190039150507f3031323334353637383961626364656600000000000000000000000000000000600a86061a8153600a85816116115761161061300f565b5b049450600085036115c8575b819350505050919050565b60007f80ac58cd000000000000000000000000000000000000000000000000000000007bffffffffffffffffffffffffffffffffffffffffffffffffffffffff1916827bffffffffffffffffffffffffffffffffffffffffffffffffffffffff191614806116f357507f5b5e139f000000000000000000000000000000000000000000000000000000007bffffffffffffffffffffffffffffffffffffffffffffffffffffffff1916827bffffffffffffffffffffffffffffffffffffffffffffffffffffffff1916145b80611703575061170282611a71565b5b9050919050565b60008073ffffffffffffffffffffffffffffffffffffffff1661172c8361128f565b73ffffffffffffffffffffffffffffffffffffffff1614159050919050565b61175784848484611adb565b50505050565b50505050565b60006117848473ffffffffffffffffffffffffffffffffffffffff16611c39565b156118dd578373ffffffffffffffffffffffffffffffffffffffff1663150b7a026117ad610cf2565b8786866040518563ffffffff1660e01b81526004016117cf9493929190613093565b6020604051808303816000875af192505050801561180b57506040513d601f19601f8201168201806040525081019061180891906130f4565b60015b61188d573d806000811461183b576040519150601f19603f3d011682016040523d82523d6000602084013e611840565b606091505b506000815103611885576040517f08c379a000000000000000000000000000000000000000000000000000000000815260040161187c90612fef565b60405180910390fd5b805181602001fd5b63150b7a0260e01b7bffffffffffffffffffffffffffffffffffffffffffffffffffffffff1916817bffffffffffffffffffffffffffffffffffffffffffffffffffffffff1916149150506118e2565b600190505b949350505050565b6001816000016000828254019250508190555050565b61191a828260405180602001604052806000815250611c5c565b5050565b600080600090507a184f03e93ff9f4daa797ed6e38ed64bf6a1f010000000000000000831061197c577a184f03e93ff9f4daa797ed6e38ed64bf6a1f01000000000000000083816119725761197161300f565b5b0492506040810190505b6d04ee2d6d415b85acef810000000083106119b9576d04ee2d6d415b85acef810000000083816119af576119ae61300f565b5b0492506020810190505b662386f26fc1000083106119e857662386f26fc1000083816119de576119dd61300f565b5b0492506010810190505b6305f5e1008310611a11576305f5e1008381611a0757611a0661300f565b5b0492506008810190505b6127108310611a36576127108381611a2c57611a2b61300f565b5b0492506004810190505b60648310611a595760648381611a4f57611a4e61300f565b5b0492506002810190505b600a8310611a68576001810190505b80915050919050565b60007f01ffc9a7000000000000000000000000000000000000000000000000000000007bffffffffffffffffffffffffffffffffffffffffffffffffffffffff1916827bffffffffffffffffffffffffffffffffffffffffffffffffffffffff1916149050919050565b611ae784848484611cb7565b6001811115611b2b576040517f08c379a0000000000000000000000000000000000000000000000000000000008152600401611b2290613193565b60405180910390fd5b6000829050600073ffffffffffffffffffffffffffffffffffffffff168573ffffffffffffffffffffffffffffffffffffffff1603611b7257611b6d81611ddd565b611bb1565b8373ffffffffffffffffffffffffffffffffffffffff168573ffffffffffffffffffffffffffffffffffffffff1614611bb057611baf8582611e26565b5b5b600073ffffffffffffffffffffffffffffffffffffffff168473ffffffffffffffffffffffffffffffffffffffff1603611bf357611bee81611f93565b611c32565b8473ffffffffffffffffffffffffffffffffffffffff168473ffffffffffffffffffffffffffffffffffffffff1614611c3157611c308482612064565b5b5b5050505050565b6000808273ffffffffffffffffffffffffffffffffffffffff163b119050919050565b611c6683836120e3565b611c736000848484611763565b611cb2576040517f08c379a0000000000000000000000000000000000000000000000000000000008152600401611ca990612fef565b60405180910390fd5b505050565b6001811115611dd757600073ffffffffffffffffffffffffffffffffffffffff168473ffffffffffffffffffffffffffffffffffffffff1614611d4b5780600360008673ffffffffffffffffffffffffffffffffffffffff1673ffffffffffffffffffffffffffffffffffffffff1681526020019081526020016000206000828254611d4391906131e2565b925050819055505b600073ffffffffffffffffffffffffffffffffffffffff168373ffffffffffffffffffffffffffffffffffffffff1614611dd65780600360008573ffffffffffffffffffffffffffffffffffffffff1673ffffffffffffffffffffffffffffffffffffffff1681526020019081526020016000206000828254611dce9190613216565b925050819055505b5b50505050565b6008805490506009600083815260200190815260200160002081905550600881908060018154018082558091505060019003906000526020600020016000909190919091505550565b60006001611e33846108fd565b611e3d91906131e2565b9050600060076000848152602001908152602001600020549050818114611f22576000600660008673ffffffffffffffffffffffffffffffffffffffff1673ffffffffffffffffffffffffffffffffffffffff168152602001908152602001600020600084815260200190815260200160002054905080600660008773ffffffffffffffffffffffffffffffffffffffff1673ffffffffffffffffffffffffffffffffffffffff168152602001908152602001600020600084815260200190815260200160002081905550816007600083815260200190815260200160002081905550505b6007600084815260200190815260200160002060009055600660008573ffffffffffffffffffffffffffffffffffffffff1673ffffffffffffffffffffffffffffffffffffffff16815260200190815260200160002060008381526020019081526020016000206000905550505050565b60006001600880549050611fa791906131e2565b9050600060096000848152602001908152602001600020549050600060088381548110611fd757611fd6612bf4565b5b906000526020600020015490508060088381548110611ff957611ff8612bf4565b5b9060005260206000200181905550816009600083815260200190815260200160002081905550600960008581526020019081526020016000206000905560088054806120485761204761324a565b5b6001900381819060005260206000200160009055905550505050565b600061206f836108fd565b905081600660008573ffffffffffffffffffffffffffffffffffffffff1673ffffffffffffffffffffffffffffffffffffffff168152602001908152602001600020600083815260200190815260200160002081905550806007600084815260200190815260200160002081905550505050565b600073ffffffffffffffffffffffffffffffffffffffff168273ffffffffffffffffffffffffffffffffffffffff1603612152576040517f08c379a0000000000000000000000000000000000000000000000000000000008152600401612149906132c5565b60405180910390fd5b61215b8161170a565b1561219b576040517f08c379a000000000000000000000000000000000000000000000000000000000815260040161219290613331565b60405180910390fd5b6121a960008383600161174b565b6121b28161170a565b156121f2576040517f08c379a00000000000000000000000000000000000000000000000000000000081526004016121e990613331565b60405180910390fd5b6001600360008473ffffffffffffffffffffffffffffffffffffffff1673ffffffffffffffffffffffffffffffffffffffff16815260200190815260200160002060008282540192505081905550816002600083815260200190815260200160002060006101000a81548173ffffffffffffffffffffffffffffffffffffffff021916908373ffffffffffffffffffffffffffffffffffffffff160217905550808273ffffffffffffffffffffffffffffffffffffffff16600073ffffffffffffffffffffffffffffffffffffffff167fddf252ad1be2c89b69c2b068fc378daa952ba7f163c4a11628f55a4df523b3ef60405160405180910390a46122fc60008383600161175d565b5050565b6000604051905090565b600080fd5b600080fd5b60007fffffffff0000000000000000000000000000000000000000000000000000000082169050919050565b61234981612314565b811461235457600080fd5b50565b60008135905061236681612340565b92915050565b6000602082840312156123825761238161230a565b5b600061239084828501612357565b91505092915050565b60008115159050919050565b6123ae81612399565b82525050565b60006020820190506123c960008301846123a5565b92915050565b600081519050919050565b600082825260208201905092915050565b60005b838110156124095780820151818401526020810190506123ee565b60008484015250505050565b6000601f19601f8301169050919050565b6000612431826123cf565b61243b81856123da565b935061244b8185602086016123eb565b61245481612415565b840191505092915050565b600060208201905081810360008301526124798184612426565b905092915050565b6000819050919050565b61249481612481565b811461249f57600080fd5b50565b6000813590506124b18161248b565b92915050565b6000602082840312156124cd576124cc61230a565b5b60006124db848285016124a2565b91505092915050565b600073ffffffffffffffffffffffffffffffffffffffff82169050919050565b600061250f826124e4565b9050919050565b61251f81612504565b82525050565b600060208201905061253a6000830184612516565b92915050565b61254981612504565b811461255457600080fd5b50565b60008135905061256681612540565b92915050565b600080604083850312156125835761258261230a565b5b600061259185828601612557565b92505060206125a2858286016124a2565b9150509250929050565b6125b581612481565b82525050565b60006020820190506125d060008301846125ac565b92915050565b6000806000606084860312156125ef576125ee61230a565b5b60006125fd86828701612557565b935050602061260e86828701612557565b925050604061261f868287016124a2565b9150509250925092565b60006020828403121561263f5761263e61230a565b5b600061264d84828501612557565b91505092915050565b61265f81612399565b811461266a57600080fd5b50565b60008135905061267c81612656565b92915050565b600080604083850312156126995761269861230a565b5b60006126a785828601612557565b92505060206126b88582860161266d565b9150509250929050565b600080fd5b600080fd5b7f4e487b7100000000000000000000000000000000000000000000000000000000600052604160045260246000fd5b61270482612415565b810181811067ffffffffffffffff82111715612723576127226126cc565b5b80604052505050565b6000612736612300565b905061274282826126fb565b919050565b600067ffffffffffffffff821115612762576127616126cc565b5b61276b82612415565b9050602081019050919050565b82818337600083830152505050565b600061279a61279584612747565b61272c565b9050828152602081018484840111156127b6576127b56126c7565b5b6127c1848285612778565b509392505050565b600082601f8301126127de576127dd6126c2565b5b81356127ee848260208601612787565b91505092915050565b600080600080608085870312156128115761281061230a565b5b600061281f87828801612557565b945050602061283087828801612557565b9350506040612841878288016124a2565b925050606085013567ffffffffffffffff8111156128625761286161230f565b5b61286e878288016127c9565b91505092959194509250565b600080604083850312156128915761289061230a565b5b600061289f85828601612557565b92505060206128b085828601612557565b9150509250929050565b7f4e487b7100000000000000000000000000000000000000000000000000000000600052602260045260246000fd5b6000600282049050600182168061290157607f821691505b602082108103612914576129136128ba565b5b50919050565b7f4552433732313a20617070726f76616c20746f2063757272656e74206f776e6560008201527f7200000000000000000000000000000000000000000000000000000000000000602082015250565b60006129766021836123da565b91506129818261291a565b604082019050919050565b600060208201905081810360008301526129a581612969565b9050919050565b7f4552433732313a20617070726f76652063616c6c6572206973206e6f7420746f60008201527f6b656e206f776e6572206f7220617070726f76656420666f7220616c6c000000602082015250565b6000612a08603d836123da565b9150612a13826129ac565b604082019050919050565b60006020820190508181036000830152612a37816129fb565b9050919050565b7f4552433732313a2063616c6c6572206973206e6f7420746f6b656e206f776e6560008201527f72206f7220617070726f76656400000000000000000000000000000000000000602082015250565b6000612a9a602d836123da565b9150612aa582612a3e565b604082019050919050565b60006020820190508181036000830152612ac981612a8d565b9050919050565b7f455243373231456e756d657261626c653a206f776e657220696e646578206f7560008201527f74206f6620626f756e6473000000000000000000000000000000000000000000602082015250565b6000612b2c602b836123da565b9150612b3782612ad0565b604082019050919050565b60006020820190508181036000830152612b5b81612b1f565b9050919050565b7f455243373231456e756d657261626c653a20676c6f62616c20696e646578206f60008201527f7574206f6620626f756e64730000000000000000000000000000000000000000602082015250565b6000612bbe602c836123da565b9150612bc982612b62565b604082019050919050565b60006020820190508181036000830152612bed81612bb1565b9050919050565b7f4e487b7100000000000000000000000000000000000000000000000000000000600052603260045260246000fd5b7f4552433732313a20696e76616c696420746f6b656e2049440000000000000000600082015250565b6000612c596018836123da565b9150612c6482612c23565b602082019050919050565b60006020820190508181036000830152612c8881612c4c565b9050919050565b7f4552433732313a2061646472657373207a65726f206973206e6f74206120766160008201527f6c6964206f776e65720000000000000000000000000000000000000000000000602082015250565b6000612ceb6029836123da565b9150612cf682612c8f565b604082019050919050565b60006020820190508181036000830152612d1a81612cde565b9050919050565b7f596f75206e656564206d6f726520657468657200000000000000000000000000600082015250565b6000612d576013836123da565b9150612d6282612d21565b602082019050919050565b60006020820190508181036000830152612d8681612d4a565b9050919050565b600081905092915050565b6000612da3826123cf565b612dad8185612d8d565b9350612dbd8185602086016123eb565b80840191505092915050565b6000612dd58285612d98565b9150612de18284612d98565b91508190509392505050565b7f4552433732313a207472616e736665722066726f6d20696e636f72726563742060008201527f6f776e6572000000000000000000000000000000000000000000000000000000602082015250565b6000612e496025836123da565b9150612e5482612ded565b604082019050919050565b60006020820190508181036000830152612e7881612e3c565b9050919050565b7f4552433732313a207472616e7366657220746f20746865207a65726f2061646460008201527f7265737300000000000000000000000000000000000000000000000000000000602082015250565b6000612edb6024836123da565b9150612ee682612e7f565b604082019050919050565b60006020820190508181036000830152612f0a81612ece565b9050919050565b7f4552433732313a20617070726f766520746f2063616c6c657200000000000000600082015250565b6000612f476019836123da565b9150612f5282612f11565b602082019050919050565b60006020820190508181036000830152612f7681612f3a565b9050919050565b7f4552433732313a207472616e7366657220746f206e6f6e20455243373231526560008201527f63656976657220696d706c656d656e7465720000000000000000000000000000602082015250565b6000612fd96032836123da565b9150612fe482612f7d565b604082019050919050565b6000602082019050818103600083015261300881612fcc565b9050919050565b7f4e487b7100000000000000000000000000000000000000000000000000000000600052601260045260246000fd5b600081519050919050565b600082825260208201905092915050565b60006130658261303e565b61306f8185613049565b935061307f8185602086016123eb565b61308881612415565b840191505092915050565b60006080820190506130a86000830187612516565b6130b56020830186612516565b6130c260408301856125ac565b81810360608301526130d4818461305a565b905095945050505050565b6000815190506130ee81612340565b92915050565b60006020828403121561310a5761310961230a565b5b6000613118848285016130df565b91505092915050565b7f455243373231456e756d657261626c653a20636f6e736563757469766520747260008201527f616e7366657273206e6f7420737570706f727465640000000000000000000000602082015250565b600061317d6035836123da565b915061318882613121565b604082019050919050565b600060208201905081810360008301526131ac81613170565b9050919050565b7f4e487b7100000000000000000000000000000000000000000000000000000000600052601160045260246000fd5b60006131ed82612481565b91506131f883612481565b92508282039050818111156132105761320f6131b3565b5b92915050565b600061322182612481565b915061322c83612481565b9250828201905080821115613244576132436131b3565b5b92915050565b7f4e487b7100000000000000000000000000000000000000000000000000000000600052603160045260246000fd5b7f4552433732313a206d696e7420746f20746865207a65726f2061646472657373600082015250565b60006132af6020836123da565b91506132ba82613279565b602082019050919050565b600060208201905081810360008301526132de816132a2565b9050919050565b7f4552433732313a20746f6b656e20616c7265616479206d696e74656400000000600082015250565b600061331b601c836123da565b9150613326826132e5565b602082019050919050565b6000602082019050818103600083015261334a8161330e565b905091905056fea264697066735822122044ca98567ba7efa4da9ba2eb01ac6bb1cf50fc510edfc0fa64b11f1aa74b272d64736f6c63430008130033",
  "immutableReferences": {},
  "source": "pragma solidity ^0.8.9;\r\n\r\nimport \"@openzeppelin/contracts/token/ERC721/ERC721.sol\";\r\nimport \"@openzeppelin/contracts/token/ERC721/extensions/ERC721Enumerable.sol\";\r\nimport \"@openzeppelin/contracts/token/ERC721/extensions/ERC721Burnable.sol\";\r\nimport \"@openzeppelin/contracts/utils/Counters.sol\";\r\n\r\ncontract MyNFTERC721 is ERC721, ERC721Enumerable, ERC721Burnable {\r\n    using Counters for Counters.Counter;\r\n\r\n    Counters.Counter private _tokenIdCounter;\r\n    string private _baseTokenURI;\r\n    uint private _MAXSUPPLY = 10;\r\n\r\n    constructor(\r\n        string memory name,\r\n        string memory symbol,\r\n        string memory baseTokenURI\r\n    ) ERC721(name, symbol) {\r\n        _baseTokenURI = baseTokenURI;\r\n    }\r\n\r\n    function _baseURI() internal view virtual override returns (string memory) {\r\n        return _baseTokenURI;\r\n    }\r\n\r\n    function safeMint(address to) private {\r\n        uint256 tokenId = _tokenIdCounter.current();\r\n        _tokenIdCounter.increment();\r\n        _safeMint(to, tokenId);\r\n    }\r\n\r\n    // use this \r\n    function buyNFT() public payable{\r\n        uint256 tokenId = _tokenIdCounter.current();\r\n        require(tokenId < _MAXSUPPLY);\r\n        require(msg.value >= 1000000000000000000,\"You need more ether\");\r\n        safeMint(msg.sender);\r\n    }\r\n\r\n    // Overrides required by Solidity.\r\n    function _beforeTokenTransfer(address from, address to, uint256 tokenId, uint256 batchSize)\r\n        internal\r\n        override(ERC721, ERC721Enumerable)\r\n    {\r\n        super._beforeTokenTransfer(from, to, tokenId, batchSize);\r\n    }\r\n\r\n    function supportsInterface(bytes4 interfaceId)\r\n        public\r\n        view\r\n        override(ERC721, ERC721Enumerable)\r\n        returns (bool)\r\n    {\r\n        return super.supportsInterface(interfaceId);\r\n    }\r\n}",
  "sourcePath": "C:\\Users\\Gerry2000\\Desktop\\PROJTEST\\contracts\\MyNFTERC721.sol",
  "compiler": {
    "name": "solc",
    "version": "0.8.19+commit.7dd6d404.Emscripten.clang"
  },
  "schemaVersion": "3.4.13",
  "updatedAt": "2023-03-22T14:59:50.420Z",
  "networkType": "ethereum",
  "devdoc": {
    "events": {
      "Approval(address,address,uint256)": {
        "details": "Emitted when `owner` enables `approved` to manage the `tokenId` token."
      },
      "ApprovalForAll(address,address,bool)": {
        "details": "Emitted when `owner` enables or disables (`approved`) `operator` to manage all of its assets."
      },
      "Transfer(address,address,uint256)": {
        "details": "Emitted when `tokenId` token is transferred from `from` to `to`."
      }
    },
    "kind": "dev",
    "methods": {
      "approve(address,uint256)": {
        "details": "See {IERC721-approve}."
      },
      "balanceOf(address)": {
        "details": "See {IERC721-balanceOf}."
      },
      "burn(uint256)": {
        "details": "Burns `tokenId`. See {ERC721-_burn}. Requirements: - The caller must own `tokenId` or be an approved operator."
      },
      "getApproved(uint256)": {
        "details": "See {IERC721-getApproved}."
      },
      "isApprovedForAll(address,address)": {
        "details": "See {IERC721-isApprovedForAll}."
      },
      "name()": {
        "details": "See {IERC721Metadata-name}."
      },
      "ownerOf(uint256)": {
        "details": "See {IERC721-ownerOf}."
      },
      "safeTransferFrom(address,address,uint256)": {
        "details": "See {IERC721-safeTransferFrom}."
      },
      "safeTransferFrom(address,address,uint256,bytes)": {
        "details": "See {IERC721-safeTransferFrom}."
      },
      "setApprovalForAll(address,bool)": {
        "details": "See {IERC721-setApprovalForAll}."
      },
      "symbol()": {
        "details": "See {IERC721Metadata-symbol}."
      },
      "tokenByIndex(uint256)": {
        "details": "See {IERC721Enumerable-tokenByIndex}."
      },
      "tokenOfOwnerByIndex(address,uint256)": {
        "details": "See {IERC721Enumerable-tokenOfOwnerByIndex}."
      },
      "tokenURI(uint256)": {
        "details": "See {IERC721Metadata-tokenURI}."
      },
      "totalSupply()": {
        "details": "See {IERC721Enumerable-totalSupply}."
      },
      "transferFrom(address,address,uint256)": {
        "details": "See {IERC721-transferFrom}."
      }
    },
    "version": 1
  },
  "userdoc": {
    "kind": "user",
    "methods": {},
    "version": 1
  }
}